:020000040800F2
:10000000084E002071020008CF110008BF10000840
:10001000CD110008CD0300083916000800000000CB
:10002000000000000000000000000000B101000816
:10003000CF030008000000000D020008551300085F
:100040008B0200088B0200088B0200088B0200085C
:100050008B0200088B0200088B0200088B0200084C
:100060008B0200088B0200088B0200088B0200083C
:100070008B0200088B0200088B0200088B0200082C
:100080008B0200088B0200088B02000800000000B1
:100090000000000000000000000000008B020008CB
:1000A0008B020008111400088B0200088B02000864
:1000B0008B0200088B0200088B0200088B020008EC
:1000C0008B0200088B0200088B0200088B020008DC
:1000D0008B0200088B0200088B0200080000000061
:1000E0008B0200088B0200088B0200080000000051
:1000F0000000000000000000000000008B0200086B
:10010000000000008B0200088B0200088B02000830
:1001100000000000000000000000000000000000DF
:100120008B0200088B0200088B0200088B0200087B
:100130008B0200080000000000000000000000002A
:100140000000000000000000000000008B0200081A
:100150008B0200088B0200088B0200088B0200084B
:100160008B0200088B020008000000000000000065
:10017000000000000000000000000000000000007F
:10018000000000008B0200080000000000000000DA
:100190008B0200088B020008DFF810D000F004F991
:1001A00000480047591B0008AFF30080084E0020AC
:1001B0002C4B19680868B0E8F04F80F30988BFF34A
:1001C0006F8F4FF0000080F311887047000000002F
:1001D00008480068006880F308884FF0000080F34A
:1001E000148862B661B6BFF34F8FBFF36F8F00DF25
:1001F00000BF00BF08ED00E0DFF80C00016841F42B
:1002000070010160704700BF88ED00E0EFF30980E6
:10021000BFF36F8F134B1A681EF0100F08BF20ED4D
:10022000108A20E9F04F106009B44FF0500080F3BD
:100230001188BFF34F8FBFF36F8F02F053FB4FF066
:10024000000080F3118809BC19680868B0E8F04F15
:100250001EF0100F08BFB0EC108A80F30988BFF3BE
:100260006F8F704714000020EFF305807047000087
:100270000648804706480047FEE7FEE7FEE7FEE740
:10028000FEE7FEE7FEE7FEE7FEE7FEE701140008F3
:10029000990100082DE9F05F0546002092469B4633
:1002A00088460646814640241BE02846414647468C
:1002B000224600F069F853465A46C01A914110D3BD
:1002C00011461846224600F050F82D1A67EB010837
:1002D0004F4622460120002100F047F817EB0009A5
:1002E0004E41201EA4F10104DFDC484631462A4677
:1002F0004346BDE8F09F40EA01039B0703D009E0B5
:1003000008C9121F08C0042AFAD203E011F8013B01
:1003100000F8013B521EF9D27047D2B201E000F85A
:10032000012B491EFBD270470022F6E710B5134699
:100330000A4604461946FFF7F0FF204610BD30B5C7
:100340000B46014600202022012409E021FA02F593
:100350009D4205D303FA02F5491B04FA02F528442D
:10036000151EA2F10102F1DC30BD202A04DB203A87
:1003700000FA02F1002070479140C2F1200320FAF8
:1003800003F3194390407047202A04DB203A21FAF6
:1003900002F00021704721FA02F3D040C2F120029E
:1003A0009140084319467047064C074D06E0E06847
:1003B00040F0010394E8070098471034AC42F6D3AC
:1003C000FFF7EEFE2834000848340008FEE77047C7
:1003D00072B6FEE72DE9F84FDFF8B8A1002201243C
:1003E00003254FF00F090AF1040BAAF1040E00BF18
:1003F0000B6804FA02F63340B34273D10F7907F069
:100400000307012F01D0022F16D187684FEA420857
:1004100005FA08FC27EA0C07D1F80CC00CFA08FC16
:100420004CEA070CC0F808C04768B7430E79C6F31A
:10043000001696403E4346600E79F643B6070DD04F
:10044000C768560005FA06FC27EA0C07D1F808C071
:100450000CFA06FC4CEA070CC0F80CC00E7906F04A
:100460000306022E10D1D60800EB8608D8F82060CB
:1004700057074FEAD76C09FA0CF7BE430F6907FA22
:100480000CF73743C8F8207006684FEA420C05FAAB
:100490000CF7BE430F7907F0030707FA0CF7374351
:1004A00007604E6816F4403F6DD03B4E376847F406
:1004B00080473760366822F0030706F480460096CE
:1004C000364E07EB060CDCF8086897073F0F09FA71
:1004D00007F826EA0806DFF8C880404503D14FF048
:1004E00000081EE04FE0DFF8BC80404502D14FF02D
:1004F000010816E0DFF8B080404502D14FF0020855
:100500000FE0DFF8A880404502D14FF0030808E073
:10051000DFF89C80404502D14FF0040801E04FF025
:10052000070808FA07F848EA0608CCF80888DAF855
:1005300000605746D1F804C09E435FEACC2C00D53A
:100540001E433E60DBF800605F46D1F804C09E4366
:100550005FEA8C2C00D51E433E60DEF800607746D3
:10056000D1F804C09E435FEA8C3C00D51E433E6038
:10057000084F083F3E68D1F804C09E435FEACC3C78
:1005800000D51E433E60521C102AFFF431AFBDE877
:10059000F88F0000083C0140443802400030014020
:1005A000000002400004024000080240000C02402B
:1005B000001002400069084000D0012070474269E5
:1005C00021EA02030A4043EA0241816170470AB10D
:1005D000816170470904FBE70148806870470000AB
:1005E000040000200248816802781144816070474D
:1005F000040000200B4810B5016841F4007101604F
:10060000016841F480610160016841F4807101601A
:10061000032000F099F80F2000F006F800F04AF8E7
:10062000002010BD003C024030B505461C4887B094
:100630000024016841F001010160006806A900F092
:100640000100009001A800F02BF900F059F91549BC
:10065000154AB0FBF1F11548491E026040F2E7323D
:10066000C0E90324C0E90114846100F043FB0400E5
:1006700012D10E4800F06CFB04000DD1192000F0DF
:1006800035F8102D07D200222946192000F03CF839
:100690000748056000E0012407B0204630BD000097
:1006A0004438024040420F0000000140EC000020AE
:1006B000080000200C4882B0016841F480410160CC
:1006C000006800F4804000900748001F016841F076
:1006D000805101600068002200F0805000900F21DE
:1006E000901E02B000F010B844380240002809DB28
:1006F00000F01F02012191404009800000F1E0203C
:10070000C0F8001170470000F0B40E4B1B680C4697
:10071000C3F30223C3F10705042D00D90425191DD5
:10072000072901D2002300E0DB1E012606FA05F1AD
:10073000491E214099409E40761E16403143F0BC30
:1007400000F08CBF0CED00E0064900F007020868DD
:100750004FF6FF03184040EA0220034A10430860A6
:10076000704700000CED00E00000FA052DE9F047AD
:100770000E46050065D0DFF81481D8F80000F7B206
:1007800000F00700B04207D288F80070D8F80000E7
:1007900000F00700B04254D128683D4C810712D5C3
:1007A000400703D5206840F4E05020602878000717
:1007B00003D5206840F4604020602068A96820F0DC
:1007C000F000084320602878C0072DD030496868C1
:1007D0000839012812D0022813D0032811D0096843
:1007E000890700292DDA216821F0030101432160E6
:1007F000FFF7F2FE814641F2883A0EE0096889036C
:10080000EFE709688901ECE7FFF7E6FEA0EB0901D5
:10081000514502D90320BDE8F0872068696800F0DF
:100820000C00B0EB810FEFD1D8F80010404601F07A
:100830000701B14207D90770006800F00700B04215
:1008400001D00120E7E72878400705D52068E9684E
:1008500020F4E050084320602878000706D520687F
:10086000296920F4604040EAC100206000F058F897
:100870002168084AC1F30311515CC8400649086069
:1008800006480068FFF7D0FE0020C4E7003C0240A5
:1008900008380240A433000810000020080000209F
:1008A0000F2202600C4A136803F0030343601368CD
:1008B00003F0F0038360136803F4E053C36012682D
:1008C0004FF4E05303EAD20202610448006800F0EA
:1008D000070008607047000008380240003C0240F2
:1008E0000448054900680968044AC1F38221515C43
:1008F000C84070471000002008380240B433000898
:100900000448054900680968044AC1F34231515C52
:10091000C84070471000002008380240B433000877
:10092000154810B5006810F00C02144813D0144993
:10093000042A0FD0082A0ED10F4C241F22682368E6
:1009400002F03F025B0207D52068C0F38810A0FBCD
:10095000010106E0084610BD2168C1F38811A1FB22
:1009600000010023FFF796FC2168C1F30141491CF7
:100970004900B0FBF1F010BD083802400024F4003B
:1009800040787D012DE9F84F04006ED02078DFF823
:100990004C93C007A9F104054AD009F1040001688D
:1009A000C1F38101012908D00068C0F38100022849
:1009B0000AD1D9F80000400206D52868800337D54F
:1009C00060680028E1D033E06068B0F5803F10D067
:1009D000B0F5A02F286810D020F480302860286857
:1009E00020F4802028606068A8B1FFF7F5FD064676
:1009F0000DE0286840F48030F4E740F4802028605F
:100A0000F7E700BFFFF7E8FD801B642873D828686C
:100A10008003F7D50CE0FFF7DFFD064605E000BFD9
:100A2000FFF7DAFD801B6428F0D828688003F7D42C
:100A30002078DFF8AC8280074FF0000A3ED5A74847
:100A4000001D016811F00C0F08D00068C0F3810090
:100A500002280BD1D9F80000400207D4286880078B
:100A600016D5E068012800D112E033E1E068B8B1A2
:100A70000120C8F80000FFF7AFFD064605E000BF03
:100A8000FFF7AAFD801B0228C0D828688007F7D589
:100A90002868216920F0F80040EAC10028600DE0D4
:100AA000C8F800A0FFF798FD064604E0FFF794FDA4
:100AB000801B02281FD828688007F7D420780007F9
:100AC00022D5864F87486169703771B10121016075
:100AD000FFF782FD064604E0FFF77EFD801B02283B
:100AE00009D838688007F7D50EE0C0F800A0FFF7F6
:100AF00073FD064605E082E0FFF76EFD801B0228CD
:100B00007DD838688007F7D42078400768D5DFF8AB
:100B1000CCB100270BF13C0BDBF80000C0000BD47C
:100B2000DBF8001041F08051CBF80010DBF800003A
:100B3000012700F0805000906B4E3068C00510D443
:100B4000306840F480703060FFF746FD009005E0AB
:100B5000FFF742FD0099401A022850D83068C005BE
:100B6000F6D55E4EA0686C3601280FD00528306897
:100B700010D020F001003060306820F004003060B8
:100B8000A068B8B1FFF728FD00900FE0306840F092
:100B90000100F4E740F004003060F7E7FFF71CFDC8
:100BA0000099411A41F28830814266D83068800746
:100BB000F4D50EE0FFF710FD009007E0FFF70CFD05
:100BC0000099411A41F28830814256D83068800736
:100BD000F4D42FB1DBF8001021F08051CBF80010D5
:100BE000A069C8B33D49091D0968C1F38101022903
:100BF0004AD00228504607D0C8F8600000E03CE028
:100C0000FFF7EAFC04463BE04746C8F86000FFF700
:100C1000E3FC064605E000BFFFF7DEFC801B022870
:100C20002BD828688001F7D4D4E907010843A16ACA
:100C30002E4A490802EB0141626A41EA82110843E7
:100C400094F82C1040EA0161C9F8001001203866C0
:100C5000FFF7C2FC044606E03EE000BFFFF7BCFC25
:100C6000001B022809D828688001F7D534E000BFAE
:100C7000FFF7B2FC001B022802D90320BDE8F88F61
:100C800028688001F4D427E00128F7D0D9F80000C3
:100C9000E26900F4800191421CD1226A00F03F0118
:100CA000914217D147F6C071626A0140B1EB821FD1
:100CB00010D1A26A4FF0FF3300F4403103EB52022F
:100CC000B1EB024F06D194F82C1000F07060B0EB3D
:100CD000016F01D00120D1E70020CFE704380240A6
:100CE00000004742800E4742007000400000FFFFB6
:100CF0007047704710B5040003D094F83D0010B160
:100D000007E0012010BD002084F83C00204600F0E0
:100D10001EF8022084F83D00211D206800F07EFBB3
:100D2000012084F8460084F83E0084F83F0084F8EF
:100D3000400084F8410084F8420084F8430084F8BD
:100D4000440084F8450084F83D00002010BD704741
:100D500090F83D10012901D001207047022180F850
:100D60003D100168CA6842F00102CA6000680E497D
:100D700088420ED0B0F1804F0BD00C49884208D089
:100D80000B49884205D00B49884202D00A49884263
:100D900004D1816801F00701062903D0016841F000
:100DA0000101016000207047000001400004004084
:100DB00000080040000C004000400140704770B542
:100DC0000446006801694FF00005C943890715D43E
:100DD000C168C943890711D4E91E01610120207748
:100DE000206880698007204602D0FFF7E7FF04E013
:100DF00000F098F8204600F096F825772068016901
:100E0000C943490717D4C168C943490713D46FF0D0
:100E100004010161022020772068806910F4407F7E
:100E2000204602D0FFF7CAFF04E000F07BF820461E
:100E300000F079F8257720680169C943090716D4BD
:100E4000C168C943090712D46FF008010161042089
:100E500020772068C0698007204602D0FFF7AEFFE8
:100E600004E000F05FF8204600F05DF82577206888
:100E70000169C943C90617D4C168C943C90613D457
:100E80006FF010010161082020772068C06910F41C
:100E9000407F204602D0FFF791FF04E000F042F8C7
:100EA000204600F040F8257720680169C943C9074A
:100EB00008D1C168C943C90704D1891E0161204610
:100EC00000F032F820680169C943090609D4C168F5
:100ED000C943090605D46FF0800101612046FFF780
:100EE00007FF20680169C943490609D4C168C9439D
:100EF000490605D46FF040010161204600F01EF85C
:100F000020680169C94389060BD4C168C9438906B1
:100F100007D46FF0200101612046BDE87040FFF763
:100F2000E8BE70BD7047704700680349884201D130
:100F3000FFF758BB7047000000000140704770B5D4
:100F4000040004D094F83D00002510B106E0012013
:100F500070BD84F83C50204600F022F8242084F82C
:100F60003D002068C16821F40051C160204600F0B6
:100F7000A1FA2068016921F490410161206841696A
:100F800021F02A0141612068C16841F40051C1602B
:100F90002564202084F83D0084F83E00002070BDC8
:100FA00010B586B0044614216846FFF7BDF9144910
:100FB0002068884221D113480021026842F01002C3
:100FC0000260006800F0100005900E4814380268B6
:100FD00042F001020260006800F0010005904FF449
:100FE000C06000900220CDE901010320039007209A
:100FF000049069460448FFF7EDF906B010BD000003
:101000000010014044380240000002402DE9F8433E
:10101000044690F83D001F4616460D4620284CD148
:10102000C5B1BEB194F83C00012846D0012084F837
:101030003C004FF00008C4F84080212084F83D00B7
:10104000FFF7CAFAA6848146E684A068B0F5805FFF
:1010500003D004E00120BDE8F883206928B12E46C2
:101060005FF0000584F83C800EE00026FAE780215E
:10107000204600F0A5FAA0B9AEB116F8010B216820
:101080004860E08C401EE084E08C4B464FF000024C
:1010900000970028EBD14FF04001204600F090FA75
:1010A00030B10320D7E735F8020BC0F30800E6E7BC
:1010B000202084F83D000020CDE70220CBE7FEE7AA
:1010C00010B50B4A00210B4800F090FD0A490B4A6D
:1010D000086000210A4800F089FD0A490A4A0860B0
:1010E00000210A4800F082FD0949086010BD000097
:1010F00080330008D111000800000020E033000810
:101100007D1800089C000020BC330008491A000824
:101110009400002070B586B014216846FFF704F9EA
:1011200019480024016841F004010160016801F0E0
:1011300004010591016841F080010160016801F03E
:1011400080010591016841F0010101600068012200
:1011500000F001000D4E5503059029463046FFF77B
:1011600036FA00950125CDE90154694630460394CD
:10117000FFF730F9CDE90054694605480295FFF7BD
:1011800029F906B070BD0000303802400008024066
:10119000000002400C4810B50A4901604FF4E131EB
:1011A0004160002181600C22C160C0E904128161AC
:1011B000C161FFF7C4FE002803D0BDE81040FFF76F
:1011C00007B910BD00100140A8000020FEE7FEE7AF
:1011D0001CB501208DF80400FF20284C8DF800007C
:1011E0004FF47A7526A000F029FA294601A800F0EC
:1011F0001BFB002837D19DF80400022813D1FFF70C
:10120000EBF9014625A000F019FA02208DF8000044
:1012100000231A466946206801F0BEFC012807D069
:1012200024A000F00BFA9DF80400032807D01AE070
:10123000FFF7D2F9014628A000F000FAF3E7FFF724
:10124000CBF9014632A000F0F9F903208DF8000037
:1012500000231A466946206801F09EFC012806D04A
:1012600031A000F0EBF9642000F085FCBAE7FFF74D
:10127000B3F9014618A000F0E1F9F4E79800002066
:1012800044656661756C74205461736B2052756E91
:101290006E696E672E2E2E0D0A00000073686F7245
:1012A000742070726573736564206174205B2564BB
:1012B0005D0D0A004C45445F544F47474C45204D57
:1012C0006573736167652053656E74204661696C50
:1012D0006564210D0A0000004C45445F424C494EB4
:1012E0004B5F335F54494D4553204D6573736167C0
:1012F000652053656E7420537563636573736675FB
:101300006C6C79206174205B25645D210D0A0000FE
:101310006C6F6E67207072657373656420617420F2
:101320005B25645D0D0A00004C45445F424C494E0C
:101330004B5F335F54494D4553204D65737361676F
:10134000652053656E74204661696C6564210D0AE1
:101350000000000010B54FF0E020006901F05AFED7
:10136000012803D0BDE8104001F068BB10BD0000AB
:1013700030B593B030216846FEF7D6FF14210CA893
:10138000FEF7D2FF1C480025016841F08051016042
:10139000006800F0805011901848016841F4404105
:1013A00001600068022400F4404011900120009088
:1013B000000401908001CDE906400C2008906020D7
:1013C000CDE9090404200B906846FFF7DBFA08B169
:1013D00072B6FEE70CA90F2081E831004FF480506F
:1013E000CDE90F0503210CA8FFF7C0F9002801D0B3
:1013F00072B6FEE713B030BD4038024000700040C6
:101400000248016841F470010160704788ED00E016
:101410000148FFF7D4BC0000EC000020F0B50268E2
:101420001D4B1E4C9F031E4D1E4E984207D0B842C6
:1014300005D0A04203D0A84201D0B04204D122F08E
:10144000700C4A6842EA0C02984210D0B8420ED0A2
:10145000A0420CD0A8420AD0B04208D0124CA04200
:1014600005D0124CA04202D0114CA04203D122F46C
:101470004074CA6822434C6922F080022243026011
:101480008A68C2620A688262984201D1096901636E
:1014900001214161F0BD0000000001400004004056
:1014A00000080040000C00400040014000440140A2
:1014B0000048014070B5044600680169E26821F403
:1014C0004051114301612169A068E26908436169E3
:1014D000114308432168CA6849F20C639A430243E6
:1014E000CA6020684169A26921F4407111434161D9
:1014F00031492068884202D03049884202D1FFF742
:10150000FFF901E0FFF7ECF9E269002319216425F6
:101510003226B2F5004F626828D0A0FB0101930F7C
:101520009200FEF7B7FE0146B0FBF5F06FF018022F
:10153000504301EB800006EB0010B0FBF5F000F02B
:10154000F002B1FBF5F002EB0012B1FBF5F06FF029
:101550001803584301EB800006EB0010B0FBF5F0D8
:1015600000F00F0021681044886070BDA0FB0101ED
:1015700092185B41FEF78EFE0146B0FBF5F00201CA
:10158000B1FBF5F06FF01803584301EB800006EB58
:10159000C000B0FBF5F000F0F80002EB4002B1FB38
:1015A000F5F0584301EB800006EBC000B0FBF5F00E
:1015B00000F00700D6E700000010014000140140D1
:1015C0002DE9F041984617460E460446069D27E051
:1015D000681C25D02DB1FEF7FFFFA0EB0800A84244
:1015E0001ED920680C3050E8001F21F4D07140E86B
:1015F0000012002AF5D12068143050E8001F21F0B5
:10160000010140E80012002AF5D1202084F83D00B5
:1016100084F83E00002084F83C000320BDE8F081FF
:101620002068006836EA000004D00020B842CFD01D
:101630000020F3E70120F9E7FEE700000FB4054BB7
:1016400010B503A9044A029800F028F810BC5DF810
:1016500014FB0000F1170008A40000200907090E80
:10166000002804DB00F1E02080F80014704700F04F
:101670000F0000F1E02080F8141D704702E008C858
:10168000121F08C1002AFAD170477047002001E0FC
:1016900001C1121F002AFBD1704700002DE9FF4F46
:1016A00089B09B460446002506E025280BD05A4603
:1016B0000B999047641C6D1C20780028F5D10DB063
:1016C0002846BDE8F08F0027B8460122474900E0D0
:1016D000074314F8013F203B02FA03F00842F7D118
:1016E00020782E2819D114F8010F47F004072A2872
:1016F0000ED06FF02F022078A0F1300109290CD80C
:1017000008EB880102EB410100EB0108641CF2E7E1
:101710000A98641C50F8048B0A9020780028CED0D8
:10172000642808D0692806D075281ED05A460B991F
:1017300090476D1C58E00A994FF00A0901C90A91B7
:10174000002802DA40422D2102E0390504D52B2180
:101750008DF82010012103E0F90704D02021F7E7DC
:101760008A4608AE0DE00021FAE70A994FF00A090F
:1017700001C90A91F7E74946FEF7E1FD303106F865
:10178000011D0028F7D1ADEB060000F12009780714
:1017900001D44FF00108C84502DDA8EB090000E0C4
:1017A00000208046002706E008A85A46C05D0B9935
:1017B00090476D1C7F1C5745F6DB04E030205A46ED
:1017C0000B9990476D1CB8F10001A8F10108F5DCF8
:1017D00005E016F8010B5A460B9990476D1CB9F1BC
:1017E0000001A9F10109F4DC641C65E70928010086
:1017F00013B54FF6FF73012269460248FFF706FC56
:1018000000981CBDA800002070B50446012529469B
:101810000448FEF7CFFE10B12570022070BD0020F5
:10182000207070BD0000024038B5044601208DF8DC
:1018300000000D466846FFF7E7FF002819D19DF824
:101840000010002915D1FEF7C7FE0544FEF7C4FEBF
:10185000A842FBD36846FFF7D7FF9DF80000012898
:1018600008D0032020706846FFF7CEFF0028FAD08A
:10187000002038BD02202070FAE700001CB50120CE
:101880008DF80400014600220A2001F0EDF81A4C00
:10189000002120600091B8B118A000BFFFF7CEFE74
:1018A0000098401C00901EA0FFF7C8FE01A8FFF79B
:1018B000ABFF58B102281DD01FA000BFFFF7BEFE2E
:1018C000642000F058F9EBE720A0E7E79DF804005A
:1018D00008B125A0F2E729A0FFF7B0FE00231A46C1
:1018E0006946206801F058F9012801D027A0E5E7F2
:1018F0002FA0E3E735A0E1E7A00000204B657920A9
:101900005175657565204372656174656420537512
:10191000636365737366756C6C79210D0A00000052
:101920004B6579205461736B2052756E6E696E67DA
:101930002E2E2E0D0A0000004B6579205363616E38
:10194000204572726F72210D0A0000004B657920EC
:1019500051756575652043726561746520466169DE
:101960006C6564210D0A00004B6579204E6F742070
:1019700050726573736564210D0A00004B65792010
:1019800050726573736564210D0A00004B65792000
:101990005072657373204D6573736167652053657D
:1019A0006E64204661696C6564210D0A00000000C8
:1019B0004B6579205072657373204D657373616751
:1019C000652053656E74210D0A0000004B65792077
:1019D0005363616E2054696D656F7574210D0A0043
:1019E0002DE9F041174E4FF000084FF4005130B18F
:1019F000012806D0022809D003280BD01FE00022BE
:101A000000E001223046FEF7E2FD18E03046FEF726
:101A1000D6FD14E000240D464FF496772946304653
:101A2000FEF7CDFD384600F0A6F829463046FEF711
:101A3000C6FD384600F09FF8641C032CEEDB4046E0
:101A4000BDE8F0810008024008B5FF208DF80000D5
:101A5000002201210A2001F007F8144C206078B11F
:101A600013A000BFFFF7EAFD1AA0FFF7E7FD20680B
:101A7000B0B16422694601F09FF9012802D00FE05D
:101A80001AA0EFE79DF800101FA0FFF7D7FD9DF803
:101A90000000FFF7A5FF38B123A000BFFFF7CEFD80
:101AA000642000F068F8DFE725A0F7E79800002041
:101AB0004C454420517565756520437265617465B8
:101AC00064205375636365737366756C6C79210D5F
:101AD0000A0000004C4544205461736B2052756E1F
:101AE0006E696E672E2E2E0D0A0000004C454420B4
:101AF000517565756520437265617465204661693D
:101B00006C6564210D0A0000526563656976656441
:101B1000206C65645F71756575652076616C7565AF
:101B20003A2025640D0A00004C4544206F6E206F5A
:101B30006666204661696C6564210D0A000000003C
:101B40004C4544206F6E206F666620537563636555
:101B50007373210D0A000000FEF74CFDFFF708FC2F
:101B6000FFF7D8FAFFF716FB00F012F8FFF7A8FA14
:101B700000F020F8FEE710B5EFF3058111B16FF02A
:101B8000050403E0002408B100F0F8FD204610BD74
:101B9000EFF3058010B16FF005007047044801684D
:101BA00011B14FF0FF3070470121016000207047F4
:101BB0006400002010B5EFF3058010B16FF0050050
:101BC00010BD08480168012902D04FF0FF3010BD58
:101BD000054A002182F8141D0221016000F036FE42
:101BE000002010BD640000200BE000E02DE9FF4163
:101BF0004FEA01034FF00005EFF30581039549BB60
:101C000040B38027182100244AB3166806B1344631
:101C100096691EB13146761E382E02D21679F60725
:101C200003D0002004B0BDE8F081566906B1B708C2
:101C3000D2F808C0BCF1000F0DD0D5685C2D18D3C8
:101C400012693AB136B18DE806103A46214601F0E4
:101C5000B6F903900DE0D6685EB912694AB903AAD5
:101C6000CDE90012BAB2214601F07CF9012800D07A
:101C700003950398D6E700002DE9F041134C0F4679
:101C80000546E6682068001D00F044FC681C07D18A
:101C900037B12168BDE8F0410D48091D00F08ABC4C
:101CA00020683544B5424560216805D2A06BBDE887
:101CB000F041091D00F066BC606B091D00F062FC7C
:101CC000A06A854200D2A562BDE8F0811400002020
:101CD000240600202DE9F041054600F077FC2D4C4C
:101CE000A068401CA06020682B4F10B1606930B321
:101CF0002BE02560A068012827D1002606EB86008E
:101D000007EB800000F030FC761C382EF6D3234819
:101D100000F02AFC2148143000F026FC1F4828302F
:101D200000F022FC1D483C3000F01EFC1B485030E7
:101D300000F01AFC194860631430A06305E02068C5
:101D4000E96AC06A884200D82560606A401C606207
:101D50006864E86A2169884200D9206100EB80004C
:101D600007EB8000291D00F025FC00F04FFC6069A6
:101D700000280CD02068E96AC06A884207D2084966
:101D80004FF080500860BFF34F8FBFF36F8FBDE8F7
:101D9000F08100001400002074010020D405002010
:101DA00004ED00E038B500F011FC104C2068C8B913
:101DB0000F4800F0D9FB0E48143000F0D5FB0C485A
:101DC000E060143020610A4B0020F03B009003F1EA
:101DD000500210210A2000F068FE206010B105A119
:101DE00000F096FCBDE8384000F010BC5000002028
:101DF00028070020546D72510000000030B4026CBE
:101E00000B46002A0BD0C1681144C1608468A1420E
:101E100001D30168C16030BC1846FEF76CBA30BC13
:101E200070472DE9F041856B174604460026026C89
:101E300082B1C7B1E068FEF75EFAE168206C091A6A
:101E4000E1602268914202D2A168081AE060022F84
:101E500016D017E02068A8B9A06801F053F906462B
:101E60000020A0600EE06068FEF745FA216C606813
:101E700008446060A168884204D32068606001E083
:101E800005B16D1E6D1CA5633046BDE8F08110B52F
:101E9000044690F8590058B101280CD002280FD000
:101EA000502080F31188BFF34F8FBFF36F8FFEE791
:101EB000206B00F0BFFB2046BDE8104000F0BABB2D
:101EC00010BD000010484FF47051420706D0C01DED
:101ED0000D4920F00700411AC1F570510B4A00234B
:101EE0000144C2E900030839183A21F007011160E2
:101EF0004B600B600B1AC0E9001393604FF0004079
:101F00005360506170470000080E002080000020E0
:101F1000144E154CA6F29C474FF08058DFF84C90B9
:101F200012E000BF00F052FBF068C568281D00F009
:101F3000F1FAA068401EA0606068401E606000F07A
:101F400065FB2846FFF7A3FF60680028EAD13868E0
:101F50000128F9D9C9F80080BFF34F8FBFF36F8F05
:101F6000F2E70000100600201400002004ED00E05D
:101F700070B51D46049C51B1C4F80020C4E90F019E
:101F80000121204600F0C4FD84F84C5070BD24604F
:101F9000F4E700002DE9F05F8846DDE90B94154673
:101FA000834691009A460A9EA522206BFEF7B5F95A
:101FB0006FF00301206B01EB8501084420F0070757
:101FC000780707D0502080F31188BFF34F8FBFF3FD
:101FD0006F8FFEE70025B8F1000F0FD05FF0000013
:101FE000221818F8001082F8341018F8001011B1F7
:101FF000401C1028F4D384F8435001E084F8345096
:10200000382E00D33726E662C4E91365201D00F0A0
:10201000B6FA04F1180000F0B2FA2461C6F13800F3
:102020006462A061656584F8585052465946384646
:1020300000F05AFA2060B9F1000F01D0C9F8004051
:10204000BDE8F09F30B5114900E011460A688242B0
:10205000FBD34B685C18844203D140681844486045
:10206000084643681C18944209D1084C183C24685F
:10207000A24209D052681A4442600A68126802609B
:10208000814200D0086030BD0460F9E78000002084
:1020900070B5002441600B4D0061914206D8D11A01
:1020A0008269914206D2011D286907E09A4203D253
:1020B000994201D3012403E0011DE86800F062FAAF
:1020C000204670BD5000002010B5044600F07EFA96
:1020D000A06B28B15FF0000400F098FA204610BD14
:1020E0000124F9E730B589B03C4D6EE00498002832
:1020F00006DADDE90601059A90470498002864DBBA
:10210000069C606910B1201D00F004FA03A800F0DD
:10211000D7F8024604980A2857D2DFE800F00505F0
:10212000052D334A05052D3394F8280040F00100B1
:1021300084F828000599A069059B01442046FFF713
:10214000A7FF68B3216A2046884794F82800400713
:102150003BD5002000900598A1690023421819463C
:10216000204601F0D9F8D8B9502080F31188BFF388
:102170004F8FBFF36F8FFEE714F8280F20F0010098
:10218000207022E094F8280040F0010084F8280034
:102190000598A06128B1811813462046FFF778FF03
:1021A00013E0502080F31188BFF34F8FBFF36F8F80
:1021B000FEE794F82800810703D4204600F03AFA9D
:1021C00003E020F0010084F82800002204A9286818
:1021D00000F0F2FD002889D109B030BD5000002088
:1021E0002DE9FC410F46054600F074FB01A800F004
:1021F00067F80446019818B100F0FCFFBDE8FC81C7
:10220000254EAFB130690068D0B30027291B3A468C
:10221000306800F091FA00F0EDFF0028EED11F4980
:102220004FF080500860BFF34F8FBFF36F8FE5E72B
:10223000A542EBD800F0DEFFF0682746C068C4680E
:10224000201D00F067F994F82800410719D5A0690E
:102250002B4641193A462046FFF71AFFA8B1002045
:102260000346014600902A46204601F055F860B921
:10227000502080F31188BFF34F8FBFF36F8FFEE7BD
:1022800007E020F0010084F82800216A20468847F2
:10229000B4E70127BAE700005000002004ED00E099
:1022A0000648416B096829B1416BC968C96849682A
:1022B000816270474FF0FF31FAE700001400002000
:1022C00070B5054600F0B4FE064E0446B068844280
:1022D00003D200F009F8012000E000202860204629
:1022E000B46070BD50000020F8B5194D20E0C06802
:1022F000C4680668201D00F00DF9216A2046884751
:1023000094F82800400713D5A0693044B04206D99C
:1023100024616060211DE86800F034F908E00020C5
:102320000346014600903246204600F0F5FF38B1E2
:10233000E86801680029DAD12969C5E90310F8BD08
:10234000502080F31188BFF34F8FBFF36F8FFEE7EC
:102350005000002008484068401C4FF0500080F3B7
:10236000118804D0BFF34F8FBFF36F8FFEE7BFF329
:102370004F8FBFF36F8FFEE788000020074CE068A7
:10238000016841B1C0680021D0F80000FFF728FFC4
:10239000FFF7A8FEF3E701210020F7E75000002037
:1023A0002DE9F041044600F011F994F9455004F18B
:1023B000240609E0606A48B1304600F0E3FE08B147
:1023C00000F00AFA6D1E6DB2002DF3DC4FF0FF36FF
:1023D00084F8456000F01AF900F0F8F894F94450D8
:1023E00004F1100709E0206948B1384600F0CAFE40
:1023F00008B100F0F1F96D1E6DB2002DF3DC84F828
:102400004460BDE8F04100F001B900002DE9F04161
:102410000546002700F05EFA324E306808B9FFF733
:1024200051FD706905424ED1C5B3083568070ED01D
:1024300005F00700C0F108000544680707D05020E8
:1024400080F31188BFF34F8FBFF36F8FFEE72DB37B
:102450007068854237D82348183001460C6801E07F
:1024600020460C466168A94202D221680029F7D1B2
:1024700031688C4227D0076821680160606808379E
:10248000411B10290FD96019420708D0502080F352
:102490001188BFF34F8FBFF36F8FFEE713E04160EA
:1024A0006560FFF7CFFD61687068401A7060B268C0
:1024B000904200D2B060706901430020C4E900017D
:1024C000F068401CF06000F095FE780707D05020BF
:1024D00080F31188BFF34F8FBFF36F8FFEE738464D
:1024E000BDE8F0816800002010B5031F4FF0807434
:1024F0001C601B1F21F001011960191F044B0B60A8
:1025000014390A60091F6FF0020244380A6010BDD6
:1025100055230008D0E9013201699A60D0E901230E
:102520005A604A68824201D182684A600022026190
:102530000868401E0860086870470000034B03608D
:1025400003F15C0008608020106070475007002095
:10255000044B036003F15C0008604FF4807010606E
:1025600070470000AC09002000F108014FF0FF3275
:10257000C0E90112C16001610021016070470021C2
:102580000161704730B50B685A1C02D000F1080297
:1025900002E0026904E02246546825689D42FAD9A7
:1025A00053684B6099608A60516008610168491CFA
:1025B000016030BD42684A6093688B6093685960DF
:1025C000916008610168491C01607047502080F3E8
:1025D0001188BFF34F8FBFF36F8F0A494868401CC3
:1025E000486001280CD10848006810F0FF0F07D0A0
:1025F000502080F31188BFF34F8FBFF36F8FFEE73A
:10260000704700008800002004ED00E00849486899
:1026100028B1401E486001D180F3118870475020D6
:1026200080F31188BFF34F8FBFF36F8FFEE7000079
:102630008800002070B500282AD0164DA0F10804AB
:1026400060686969084207D1502080F31188BFF3A0
:102650004F8FBFF36F8FFEE722683AB1502080F3AF
:102660001188BFF34F8FBFF36F8FFEE78843606021
:1026700000F030F960686968084468602046FFF738
:10268000E1FC2869401C2861BDE8704000F0B2BD43
:1026900070BD0000680000204FF0E02000210161C3
:1026A000816105494FF47A720968B1FBF2F1491E64
:1026B00041610721016170471000002010B5FDF74E
:1026C000D3FD114910280ED300F1E02090F8F0035B
:1026D0000A78904207D2502080F31188BFF34F8FC1
:1026E000BFF36F8FFEE709480068896800F4E06077
:1026F000884207D9502080F31188BFF34F8FBFF372
:102700006F8FFEE710BD0000880000200CED00E098
:1027100010B5084B002200BF53F832401CB1521CC8
:10272000082AF9D310BD43F8321003EBC201486008
:1027300010BD00003401002070B515460E46044659
:10274000FFF744FF94F944100020491C01D184F89C
:10275000440094F94510491C01D184F84500FFF765
:1027600055FFA06B28B92A46314604F1240000F039
:1027700051F82046BDE87040FFF712BE10B50200C8
:1027800014D00F48006B38B1502080F31188BFF38C
:102790004F8FBFF36F8FFEE700F09CF800211046CB
:1027A000FFF76AFA00F026FD002807D105494FF02F
:1027B00080500860BFF34F8FBFF36F8F10BD0000D4
:1027C0001400002004ED00E002490A6A0260C968B2
:1027D000416070471400002001490120C861704722
:1027E0001400002010B50C4650B109490968183191
:1027F000FFF7C8FE2046BDE810400121FFF73CBAB4
:10280000502080F31188BFF34F8FBFF36F8FFEE727
:102810001400002070B514460D4668B10A490968D5
:102820001831FFF7C7FE0CB14FF0FF35214628469F
:10283000BDE87040FFF720BA502080F31188BFF345
:102840004F8FBFF36F8FFEE71400002030B587B0C5
:102850000024039405AA04A903A80494FFF76EFEBC
:10286000DDE903010094CDE90110002315A117480B
:10287000059A00F0A4FB164D0028E8621FD000F076
:102880001BFD012809D0401C19D1502080F311886C
:10289000BFF34F8FBFF36F8FFEE7502080F3118897
:1028A000BFF34F8FBFF36F8F4FF0FF30A86201204F
:1028B0006861EC6007B0BDE8304000F045B807B093
:1028C00030BD000049444C4500000000111F0008C5
:1028D000140000200248016B491C0163704700008E
:1028E00014000020164810B5016B11B10121C1611F
:1028F00010BD0021C1610169124A01E0B9B1491E50
:1029000001EB810352F82330002BF7D001EB810358
:1029100002EB830202F1080453685B685360A34230
:1029200001D15B685360DA680260016110BD50201C
:1029300080F31188BFF34F8FBFF36F8FFEE7000066
:1029400014000020740100201CB537480168374A84
:10295000914207D1502080F31188BFF34F8FBFF30E
:102960006F8FFEE700683149491E884207D1502029
:1029700080F31188BFF34F8FBFF36F8FFEE72C49B1
:1029800008780190FF20087008788DF800009DF805
:1029900000009DF8002000F0F000904207D0502089
:1029A00080F31188BFF34F8FBFF36F8FFEE79DF861
:1029B0000000204C00F0500020700720A06005E0CF
:1029C0009DF8002052008DF80020401E9DF8002048
:1029D0001206F5D4A060032807D0502080F3118898
:1029E000BFF34F8FBFF36F8FFEE74FF44070A060CF
:1029F000019808700C482030016841F470010160B2
:102A0000016841F070410160FFF746FE0020606000
:102A1000FDF7F2FB0848016841F040410160FDF715
:102A2000D7FB00201CBD000000ED00E071C20F418B
:102A300000E400E08800002034EF00E010B55020F2
:102A400080F31188BFF34F8FBFF36F8F00F0F6FA5A
:102A500018B104494FF080500860002080F31188BD
:102A600010BD000004ED00E0F8B517460E46050065
:102A700013D005FB06F05030FFF7C8FC04000AD065
:102A8000002084F8460004F150023B4631462846B7
:102A90000094FFF76DFA2046F8BD502080F31188AE
:102AA000BFF34F8FBFF36F8FFEE738B5049D18B1AA
:102AB00053B1CAB181B120E0502080F31188BFF337
:102AC0004F8FBFF36F8FFEE7502080F31188BFF365
:102AD0004F8FBFF36F8FFEE7502080F31188BFF355
:102AE0004F8FBFF36F8FFEE739B1502080F311880D
:102AF000BFF34F8FBFF36F8FFEE750241C460123B7
:102B000084F846302B460094FFF732FA204638BD51
:102B100070B50D46040025D0FFF758FDD4E90F200D
:102B2000216802FB0011A1600021A163216861609E
:102B30000A46D4E90F01401E00FB0121E160214655
:102B40004FF0FF3001F8440F487004F110008DB1D0
:102B5000FFF70AFD04F12400FFF706FDFFF756FD1D
:102B6000012070BD502080F31188BFF34F8FBFF359
:102B70006F8FFEE721690029F0D000F003FB0028E9
:102B8000ECD004494FF080500860BFF34F8FBFF383
:102B90006F8FE3E704ED00E02DE9FF4782B01D46AB
:102BA0008A464FF00008040003D0BAF1000F08D0A5
:102BB00011E0502080F31188BFF34F8FBFF36F8F68
:102BC000FEE7206C38B1502080F31188BFF34F8F9F
:102BD000BFF36F8FFEE7022D0AD1E06B012807D00B
:102BE000502080F31188BFF34F8FBFF36F8FFEE744
:102BF00000F010FA3F4F4FF000094FF0805648B9EF
:102C0000049838B1502080F31188BFF34F8FBFF381
:102C10006F8FFEE7FFF7DAFCA06BE16B884207D30A
:102C2000022D05D00498D0B1B8F1000F1AD01EE0E3
:102C30002A4651462046FFF7F4F8616A19B104F1BB
:102C4000240000F09FFA20B13E60BFF34F8FBFF326
:102C50006F8FFFF7DBFC012006B0BDE8F087FFF7C0
:102C6000D5FC22E06846FFF7AFFD4FF00108FFF703
:102C7000CDFCFFF72FFEFFF7A9FC94F94400401CA0
:102C800001D184F8449094F94500401C01D184F8A6
:102C90004590FFF7BBFC04A9684600F029F930B164
:102CA0002046FFF77DFB00F0A5FA0020D4E7FFF7F0
:102CB0008DFCA06BE16B884213D1FFF7A7FC04F1F8
:102CC00010000499FFF78EFD2046FFF769FB00F026
:102CD00091FA00289ED13E60BFF34F8FBFF36F8FF4
:102CE00098E7FFF793FC2046FFF75AFB00F082FAC3
:102CF00090E7000004ED00E02DE9F0471F46904604
:102D00008946040003D0B9F1000F08D011E050202B
:102D100080F31188BFF34F8FBFF36F8FFEE7206CF6
:102D200038B1502080F31188BFF34F8FBFF36F8FFE
:102D3000FEE7022F0AD1E06B012807D0502080F374
:102D40001188BFF34F8FBFF36F8FFEE7FFF7B6FC1D
:102D50005020EFF3118680F31188BFF34F8FBFF33C
:102D60006F8FA06BE16B884206D3022F04D0002046
:102D700086F31188BDE8F08794F94550A06B3A4678
:102D800049462046FFF74DF8681C04D06D1C84F8B6
:102D900045500120ECE7606A0028FAD004F12400D5
:102DA00000F0F0F90028F4D0B8F1000FF1D00121C3
:102DB000C8F80010EDE700002DE9F747002683B0C2
:102DC0008A46040003D0BAF1000F08D011E0502069
:102DD00080F31188BFF34F8FBFF36F8FFEE7206C36
:102DE00038B1502080F31188BFF34F8FBFF36F8F3E
:102DF000FEE700F00FF9DFF8F4804FF000094FF024
:102E0000805748B9059838B1502080F31188BFF336
:102E10004F8FBFF36F8FFEE7FFF7D8FBA56BC5B1F0
:102E200051462046FEF7EAFF6D1EA563206950B1AA
:102E300004F1100000F0A6F928B1C8F80070BFF343
:102E40004F8FBFF36F8FFFF7E1FB012006B0BDE8A6
:102E5000F087059808B11EB106E0FFF7D7FB27E021
:102E60006846FFF7B1FC0126FFF7D0FBFFF732FD04
:102E7000FFF7ACFB94F94400401C01D184F8449066
:102E800094F94500401C01D184F84590FFF7BEFB42
:102E900005A9684600F02CF8002820460AD0FFF764
:102EA0007FFA00F0A7F92046FFF70EF90028B3D00B
:102EB0000020CBE7FFF708F990B104F12400059951
:102EC000FFF790FC2046FFF76BFA00F093F900281B
:102ED000A2D1C8F80070BFF34F8FBFF36F8F9BE78D
:102EE0002046FFF75DFA00F085F995E704ED00E074
:102EF0002DE9F0410C46050011D0C4B1FFF766FB87
:102F0000174BDA686E682068911B471C17D02F6832
:102F10001B6A9F4219D0964217D8012410E0502016
:102F200080F31188BFF34F8FBFF36F8FFEE7502000
:102F300080F31188BFF34F8FBFF36F8FFEE700243C
:102F4000FFF764FB2046BDE8F081884205D9401AAE
:102F500020602846FFF738FCF1E700202060DCE71E
:102F6000140000202DE9FF5F8346DDE90E879946B6
:102F700016468A469000FFF749FA05001CD05C20EF
:102F8000FFF744FA040014D00020256384F85900A8
:102F9000CDE90240CDE900874B46324651465846BE
:102FA000FEF7F8FF2046FEF795FE012004B0BDE8CD
:102FB000F09F2846FFF73EFB4FF0FF30F6E7F0B5F5
:102FC00085B0DDE90B640A9DA6B1DCB15C270097F2
:102FD0002663022684F85960002604AFCDE9024634
:102FE000CDE90057FEF7D6FF2046FEF773FE0498A2
:102FF00005B0F0BD502080F31188BFF34F8FBFF3B1
:103000006F8FFEE7502080F31188BFF34F8FBFF31F
:103010006F8FFEE70548416919B1006B18B10020B8
:103020007047012070470220704700001400002004
:103030000148C06870470000140000202DE9F041ED
:103040002E4C0027206B28B1A069401CA061384697
:10305000BDE8F081E668761CE66013D1606B00681D
:1030600038B1502080F31188BFF34F8FBFF36F8FBB
:10307000FEE7606BA16B6163A063206A401C206265
:10308000FFF70EF9A06ADFF87880864209D3606BFB
:103090000068A0B1606BC068C5686868864211D2DC
:1030A000A0622068C06A00EB800158F82100012866
:1030B00000D90127E0690028C9D00127C7E74FF0F0
:1030C000FF30EDE7281DFFF725FAA86A18B105F1D2
:1030D0001800FFF71FFAE86A2169884200D92061C9
:1030E00000EB800108EB8100291DFFF763FAE86A15
:1030F0002168C96A8842CAD30127C8E714000020A2
:103100007401002070B504004FF0000133D01B4D56
:103110002868844207D0502080F31188BFF34F8F76
:10312000BFF36F8FFEE7206D38B1401E2065E36C62
:10313000E26A9A421FD040B11DE0502080F311880E
:10314000BFF34F8FBFF36F8FFEE7201DFFF7E2F94C
:10315000E06CE062C0F13800A061E06A2969884251
:1031600000D92861064900EB800001EB8000211D99
:10317000FFF720FA0121084670BD0000140000206E
:103180007401002070B5C068C46854B104F118001F
:103190000646FFF7BFF9144D286B50B1314613486E
:1031A00015E0502080F31188BFF34F8FBFF36F8F6E
:1031B000FEE7201DFFF7AEF9E06A2969884200D9D1
:1031C00028610B4900EB800001EB8000211DFFF717
:1031D000F1F9E06A2968C96A884202D90120E861E8
:1031E00070BD002070BD000014000020FC05002010
:1031F000740100202DE9F0472C4D00242746286B50
:1032000038B1FFF7E3F9286B401E2863286B40B103
:1032100046E0502080F31188BFF34F8FBFF36F8FCC
:10322000FEE7A968224E0120D1B3A6F59169804638
:103230003068E0B1F068C46804F11800FFF76AF97B
:10324000201DFFF767F9E06A2969884200D92861E3
:1032500000EB800109EB8100211DFFF7ABF9E06A6B
:103260002968C96A8842E3D3C5F81C80E0E70CB13D
:10327000FFF716F8AC694CB14FEA0806FFF7DEFE1F
:1032800000B1EE61641EF9D10020A861E86938B18F
:103290000849012738070860BFF34F8FBFF36F8FCE
:1032A000FFF7B4F93846BDE8F087000014000020AD
:1032B000FC05002004ED00E010B586B0FEF772FDBD
:1032C000114C2068B8B100200390049005AA04A90D
:1032D00003A8FFF73DF9DDE9032102208DE807008F
:1032E00000230AA10B48059AFFF769FE606010B140
:1032F00006B0012010BD502080F31188BFF34F8F1E
:10330000BFF36F8FFEE7000050000020546D722065
:10331000537663007D2300082DE9FF411E461346C6
:1033200002000A9D4FF0000016D0144C2768002FB1
:103330000FD0CDE900130292062917DAFFF76AFED3
:1033400002284FF000030FD0002269462068FFF7E3
:1033500023FC04B0BDE8F081502080F31188BFF356
:103360004F8FBFF36F8FFEE72A46EEE7002332460A
:1033700069463846FFF7C0FCEBE70000500000202C
:1033800004340008000000000000000000000000FD
:103390000000000000020000180000000000000013
:1033A0000000000000000000000000000102030413
:1033B0000607080900000000010203041034000899
:1033C00000000000000000000000000000000000FD
:1033D00000020000180000000000000000000000D3
:1033E0001C34000800000000000000000000000085
:1033F00000000000000200002800000000000000A3
:103400000000000064656661756C745461736B0044
:103410006C65645F5461736B000000006B65795FDD
:103420005461736B00000000483400080000002065
:10343000A80000007C160008F0340008A800002056
:10344000604D00008C160008000000000100000024
:1034500010000000000000000024F4000000000044
:10346000000000000000000000000000000000005C
:10347000000000000000000000000000000000004C
:10348000000000000000000000000000000000003C
:10349000000000000000000000000000000000002C
:1034A000000000000000000000000000000000001C
:1034B000000000000000000000000000000000000C
:1034C00000000000000000000000000000000000FC
:1034D00000000000AAAAAAAA000000000000000044
:1034E00000000000000000000000000000000000DC
:040000050800019955
:00000001FF
